:020000020000FC
:020000003FC0FF
:1000440000C00FB70F93403011F4179807C042B99E
:10005400642F440F440F603409F442E0703011F40B
:100064008B9809C051BB7A9570FF03C0522F220FA1
:1000740002C03695532F0F910FBF18950FEF0DBF88
:1000840001E20EBF0FEF10E001B900BB12B911BBC2
:1000940008E210930A0100930B01209A289806E2C3
:1000A40016E4009389001093880000E00093800018
:1000B4000CE00093810002E000936F0000271127F9
:1000C400222733274427552777277894109109014D
:1000D40013FD05C01BD01091090113FF0AD0109124
:1000E400090115FDF3CF12D01091090115FF04D0B9
:1000F400EDCF41E007D0089550E878E021E0352FB6
:1001040001D00895289A02D0289808958FEF9FEF80
:0C011400A1E081509040A040E0F7089569
:00000001FF
