:020000020000FC
:0200000064C0DA
:1000440000C00FB70F9305FE04C0289AE89405F882
:1000540001C0289800FE13C0693009F041F4E89407
:1000640000F80DC0683009F011F4332708C0639517
:1000740032B9330F330F643009F009F432E001FE72
:100084001FC0703009F041F4E89401F819C07130D0
:1000940009F069F7882714C081BB272F7A952A9520
:1000A4002A9502FC07C0689402F8880F2A9520302C
:1000B400E1F706C0E89402F886952A952030E1F726
:1000C4000F910FBF18950FEF0DBF01E20EBF0FEF99
:1000D40010E001B900BB12B911BB08E210930A0188
:1000E40000930B01209A289806E816E400938900EF
:1000F4001093880000E0009380000CE000938100DE
:1001040002E000936F0000271127222700243327E1
:100114006627882777277894E8941091090113FDBE
:1001240003F81091090115FD04F803FC08C01091AF
:10013400090113FF1FD01091090113FF0BD004FC18
:10014400EBCF1091090115FF15D01091090115FF8E
:1001540009D0E2CF662731E0689405F803F800F887
:1001640009D0089580E879E0689405F804F802F865
:1001740001F808954FEF5FEF91E0415050409040F7
:04018400E0F7089503
:00000001FF
